{
  "_format": "hh-sol-artifact-1",
  "contractName": "MyEpicNFT",
  "sourceName": "contracts/MyEpicNFT.sol",
  "abi": [
    {
      "inputs": [],
      "stateMutability": "nonpayable",
      "type": "constructor"
    },
    {
      "anonymous": false,
      "inputs": [
        {
          "indexed": true,
          "internalType": "address",
          "name": "owner",
          "type": "address"
        },
        {
          "indexed": true,
          "internalType": "address",
          "name": "approved",
          "type": "address"
        },
        {
          "indexed": true,
          "internalType": "uint256",
          "name": "tokenId",
          "type": "uint256"
        }
      ],
      "name": "Approval",
      "type": "event"
    },
    {
      "anonymous": false,
      "inputs": [
        {
          "indexed": true,
          "internalType": "address",
          "name": "owner",
          "type": "address"
        },
        {
          "indexed": true,
          "internalType": "address",
          "name": "operator",
          "type": "address"
        },
        {
          "indexed": false,
          "internalType": "bool",
          "name": "approved",
          "type": "bool"
        }
      ],
      "name": "ApprovalForAll",
      "type": "event"
    },
    {
      "anonymous": false,
      "inputs": [
        {
          "indexed": false,
          "internalType": "address",
          "name": "sender",
          "type": "address"
        },
        {
          "indexed": false,
          "internalType": "uint256",
          "name": "tokenId",
          "type": "uint256"
        }
      ],
      "name": "NewEpicNFTMinted",
      "type": "event"
    },
    {
      "anonymous": false,
      "inputs": [
        {
          "indexed": true,
          "internalType": "address",
          "name": "from",
          "type": "address"
        },
        {
          "indexed": true,
          "internalType": "address",
          "name": "to",
          "type": "address"
        },
        {
          "indexed": true,
          "internalType": "uint256",
          "name": "tokenId",
          "type": "uint256"
        }
      ],
      "name": "Transfer",
      "type": "event"
    },
    {
      "inputs": [
        {
          "internalType": "address",
          "name": "to",
          "type": "address"
        },
        {
          "internalType": "uint256",
          "name": "tokenId",
          "type": "uint256"
        }
      ],
      "name": "approve",
      "outputs": [],
      "stateMutability": "nonpayable",
      "type": "function"
    },
    {
      "inputs": [
        {
          "internalType": "address",
          "name": "owner",
          "type": "address"
        }
      ],
      "name": "balanceOf",
      "outputs": [
        {
          "internalType": "uint256",
          "name": "",
          "type": "uint256"
        }
      ],
      "stateMutability": "view",
      "type": "function"
    },
    {
      "inputs": [
        {
          "internalType": "uint256",
          "name": "tokenId",
          "type": "uint256"
        }
      ],
      "name": "getApproved",
      "outputs": [
        {
          "internalType": "address",
          "name": "",
          "type": "address"
        }
      ],
      "stateMutability": "view",
      "type": "function"
    },
    {
      "inputs": [],
      "name": "getTotalNFTsMintedSoFar",
      "outputs": [
        {
          "internalType": "uint256",
          "name": "",
          "type": "uint256"
        }
      ],
      "stateMutability": "view",
      "type": "function"
    },
    {
      "inputs": [
        {
          "internalType": "address",
          "name": "owner",
          "type": "address"
        },
        {
          "internalType": "address",
          "name": "operator",
          "type": "address"
        }
      ],
      "name": "isApprovedForAll",
      "outputs": [
        {
          "internalType": "bool",
          "name": "",
          "type": "bool"
        }
      ],
      "stateMutability": "view",
      "type": "function"
    },
    {
      "inputs": [],
      "name": "makeAnEpicNFT",
      "outputs": [],
      "stateMutability": "nonpayable",
      "type": "function"
    },
    {
      "inputs": [],
      "name": "name",
      "outputs": [
        {
          "internalType": "string",
          "name": "",
          "type": "string"
        }
      ],
      "stateMutability": "view",
      "type": "function"
    },
    {
      "inputs": [
        {
          "internalType": "uint256",
          "name": "tokenId",
          "type": "uint256"
        }
      ],
      "name": "ownerOf",
      "outputs": [
        {
          "internalType": "address",
          "name": "",
          "type": "address"
        }
      ],
      "stateMutability": "view",
      "type": "function"
    },
    {
      "inputs": [
        {
          "internalType": "uint256",
          "name": "tokenId",
          "type": "uint256"
        }
      ],
      "name": "pickRandomFirstWord",
      "outputs": [
        {
          "internalType": "string",
          "name": "",
          "type": "string"
        }
      ],
      "stateMutability": "view",
      "type": "function"
    },
    {
      "inputs": [
        {
          "internalType": "uint256",
          "name": "tokenId",
          "type": "uint256"
        }
      ],
      "name": "pickRandomSecondWord",
      "outputs": [
        {
          "internalType": "string",
          "name": "",
          "type": "string"
        }
      ],
      "stateMutability": "view",
      "type": "function"
    },
    {
      "inputs": [
        {
          "internalType": "uint256",
          "name": "tokenId",
          "type": "uint256"
        }
      ],
      "name": "pickRandomThirdWord",
      "outputs": [
        {
          "internalType": "string",
          "name": "",
          "type": "string"
        }
      ],
      "stateMutability": "view",
      "type": "function"
    },
    {
      "inputs": [
        {
          "internalType": "address",
          "name": "from",
          "type": "address"
        },
        {
          "internalType": "address",
          "name": "to",
          "type": "address"
        },
        {
          "internalType": "uint256",
          "name": "tokenId",
          "type": "uint256"
        }
      ],
      "name": "safeTransferFrom",
      "outputs": [],
      "stateMutability": "nonpayable",
      "type": "function"
    },
    {
      "inputs": [
        {
          "internalType": "address",
          "name": "from",
          "type": "address"
        },
        {
          "internalType": "address",
          "name": "to",
          "type": "address"
        },
        {
          "internalType": "uint256",
          "name": "tokenId",
          "type": "uint256"
        },
        {
          "internalType": "bytes",
          "name": "_data",
          "type": "bytes"
        }
      ],
      "name": "safeTransferFrom",
      "outputs": [],
      "stateMutability": "nonpayable",
      "type": "function"
    },
    {
      "inputs": [
        {
          "internalType": "address",
          "name": "operator",
          "type": "address"
        },
        {
          "internalType": "bool",
          "name": "approved",
          "type": "bool"
        }
      ],
      "name": "setApprovalForAll",
      "outputs": [],
      "stateMutability": "nonpayable",
      "type": "function"
    },
    {
      "inputs": [
        {
          "internalType": "bytes4",
          "name": "interfaceId",
          "type": "bytes4"
        }
      ],
      "name": "supportsInterface",
      "outputs": [
        {
          "internalType": "bool",
          "name": "",
          "type": "bool"
        }
      ],
      "stateMutability": "view",
      "type": "function"
    },
    {
      "inputs": [],
      "name": "symbol",
      "outputs": [
        {
          "internalType": "string",
          "name": "",
          "type": "string"
        }
      ],
      "stateMutability": "view",
      "type": "function"
    },
    {
      "inputs": [
        {
          "internalType": "uint256",
          "name": "tokenId",
          "type": "uint256"
        }
      ],
      "name": "tokenURI",
      "outputs": [
        {
          "internalType": "string",
          "name": "",
          "type": "string"
        }
      ],
      "stateMutability": "view",
      "type": "function"
    },
    {
      "inputs": [
        {
          "internalType": "address",
          "name": "from",
          "type": "address"
        },
        {
          "internalType": "address",
          "name": "to",
          "type": "address"
        },
        {
          "internalType": "uint256",
          "name": "tokenId",
          "type": "uint256"
        }
      ],
      "name": "transferFrom",
      "outputs": [],
      "stateMutability": "nonpayable",
      "type": "function"
    }
  ],
  "bytecode": "0x60806040526040518061016001604052806101348152602001620048cd6101349139600890805190602001906200003892919062000cba565b50604051806101e001604052806040518060400160405280600481526020017f4461726b0000000000000000000000000000000000000000000000000000000081525081526020016040518060400160405280600981526020017f4c6567656e64617279000000000000000000000000000000000000000000000081525081526020016040518060400160405280600481526020017f4865726f0000000000000000000000000000000000000000000000000000000081525081526020016040518060400160405280600581526020017f477265617400000000000000000000000000000000000000000000000000000081525081526020016040518060400160405280600981526020017f5374726f6e67657374000000000000000000000000000000000000000000000081525081526020016040518060400160405280600681526020017f506972617465000000000000000000000000000000000000000000000000000081525081526020016040518060400160405280600d81526020017f5265766f6c7574696f6e6172790000000000000000000000000000000000000081525081526020016040518060400160405280600681526020017f526167696e67000000000000000000000000000000000000000000000000000081525081526020016040518060400160405280600681526020017f467574757265000000000000000000000000000000000000000000000000000081525081526020016040518060400160405280600881526020017f576f6e64726f757300000000000000000000000000000000000000000000000081525081526020016040518060400160405280600a81526020017f52656c656e746c6573730000000000000000000000000000000000000000000081525081526020016040518060400160405280600681526020017f4d6173746572000000000000000000000000000000000000000000000000000081525081526020016040518060400160405280600981526020017f4665726f63696f7573000000000000000000000000000000000000000000000081525081526020016040518060400160405280600581526020017f427261766500000000000000000000000000000000000000000000000000000081525081526020016040518060400160405280600781526020017f47616c6c616e7400000000000000000000000000000000000000000000000000815250815250600990600f620003ca92919062000d4b565b50604051806101e001604052806040518060400160405280600481526020017f4b696e670000000000000000000000000000000000000000000000000000000081525081526020016040518060400160405280600981526020017f53776f7264736d616e000000000000000000000000000000000000000000000081525081526020016040518060400160405280600a81526020017f416476656e74757265720000000000000000000000000000000000000000000081525081526020016040518060400160405280600781526020017f466967687465720000000000000000000000000000000000000000000000000081525081526020016040518060400160405280600481526020017f4c6961720000000000000000000000000000000000000000000000000000000081525081526020016040518060400160405280600781526020017f4361707461696e0000000000000000000000000000000000000000000000000081525081526020016040518060400160405280600481526020017f436f6f6b0000000000000000000000000000000000000000000000000000000081525081526020016040518060400160405280600781526020017f53757267656f6e0000000000000000000000000000000000000000000000000081525081526020016040518060400160405280600781526020017f466973686d616e0000000000000000000000000000000000000000000000000081525081526020016040518060400160405280600581526020017f436869656600000000000000000000000000000000000000000000000000000081525081526020016040518060400160405280600781526020017f456d7065726f720000000000000000000000000000000000000000000000000081525081526020016040518060400160405280600981526020017f4e6176696761746f72000000000000000000000000000000000000000000000081525081526020016040518060400160405280600681526020017f4379626f7267000000000000000000000000000000000000000000000000000081525081526020016040518060400160405280600681526020017f446f63746f72000000000000000000000000000000000000000000000000000081525081526020016040518060400160405280600d81526020017f4172636861656f6c6f6769737400000000000000000000000000000000000000815250815250600a90600f6200075c92919062000d4b565b50604051806101e001604052806040518060400160405280600581526020017f4c7566667900000000000000000000000000000000000000000000000000000081525081526020016040518060400160405280600481526020017f5a6f726f0000000000000000000000000000000000000000000000000000000081525081526020016040518060400160405280600581526020017f55736f707000000000000000000000000000000000000000000000000000000081525081526020016040518060400160405280600581526020017f53616e6a6900000000000000000000000000000000000000000000000000000081525081526020016040518060400160405280600481526020017f4e616d690000000000000000000000000000000000000000000000000000000081525081526020016040518060400160405280600781526020017f43686f707065720000000000000000000000000000000000000000000000000081525081526020016040518060400160405280600581526020017f526f62696e00000000000000000000000000000000000000000000000000000081525081526020016040518060400160405280600681526020017f4672616e6b79000000000000000000000000000000000000000000000000000081525081526020016040518060400160405280600581526020017f42726f6f6b00000000000000000000000000000000000000000000000000000081525081526020016040518060400160405280600581526020017f4a696e626500000000000000000000000000000000000000000000000000000081525081526020016040518060400160405280600381526020017f4c6177000000000000000000000000000000000000000000000000000000000081525081526020016040518060400160405280600581526020017f526f67657200000000000000000000000000000000000000000000000000000081525081526020016040518060400160405280600881526020017f5261796c6569676800000000000000000000000000000000000000000000000081525081526020016040518060400160405280600381526020017f416365000000000000000000000000000000000000000000000000000000000081525081526020016040518060400160405280600481526020017f5361626f00000000000000000000000000000000000000000000000000000000815250815250600b90600f62000aee92919062000d4b565b5034801562000afc57600080fd5b506040518060400160405280600e81526020017f4f6e6520506965636520437265770000000000000000000000000000000000008152506040518060400160405280600881526020017f4f4e455049454345000000000000000000000000000000000000000000000000815250816000908051906020019062000b8192919062000cba565b50806001908051906020019062000b9a92919062000cba565b50505062000be86040518060400160405280601e81526020017f54686973206973206d79204e465420636f6e74726163742e20576f616821000081525062000bee60201b620012b21760201c565b62000f6c565b62000c8e8160405160240162000c05919062000e80565b6040516020818303038152906040527f41304fac000000000000000000000000000000000000000000000000000000007bffffffffffffffffffffffffffffffffffffffffffffffffffffffff19166020820180517bffffffffffffffffffffffffffffffffffffffffffffffffffffffff838183161783525050505062000c9160201b60201c565b50565b60008151905060006a636f6e736f6c652e6c6f679050602083016000808483855afa5050505050565b82805462000cc89062000ef6565b90600052602060002090601f01602090048101928262000cec576000855562000d38565b82601f1062000d0757805160ff191683800117855562000d38565b8280016001018555821562000d38579182015b8281111562000d3757825182559160200191906001019062000d1a565b5b50905062000d47919062000db2565b5090565b82805482825590600052602060002090810192821562000d9f579160200282015b8281111562000d9e57825182908051906020019062000d8d92919062000cba565b509160200191906001019062000d6c565b5b50905062000dae919062000dd1565b5090565b5b8082111562000dcd57600081600090555060010162000db3565b5090565b5b8082111562000df5576000818162000deb919062000df9565b5060010162000dd2565b5090565b50805462000e079062000ef6565b6000825580601f1062000e1b575062000e3c565b601f01602090049060005260206000209081019062000e3b919062000db2565b5b50565b600062000e4c8262000ea4565b62000e58818562000eaf565b935062000e6a81856020860162000ec0565b62000e758162000f5b565b840191505092915050565b6000602082019050818103600083015262000e9c818462000e3f565b905092915050565b600081519050919050565b600082825260208201905092915050565b60005b8381101562000ee057808201518184015260208101905062000ec3565b8381111562000ef0576000848401525b50505050565b6000600282049050600182168062000f0f57607f821691505b6020821081141562000f265762000f2562000f2c565b5b50919050565b7f4e487b7100000000000000000000000000000000000000000000000000000000600052602260045260246000fd5b6000601f19601f8301169050919050565b6139518062000f7c6000396000f3fe608060405234801561001057600080fd5b50600436106101165760003560e01c806370a08231116100a2578063b88d4fde11610071578063b88d4fde14610305578063c575757a14610321578063c87b56dd14610351578063de9d132f14610381578063e985e9c51461038b57610116565b806370a082311461026b57806395d89b411461029b578063a22cb465146102b9578063b187301f146102d557610116565b8063095ea7b3116100e9578063095ea7b3146101b757806323b872dd146101d35780632de38d68146101ef57806342842e0e1461021f5780636352211e1461023b57610116565b806301ffc9a71461011b578063060475901461014b57806306fdde0314610169578063081812fc14610187575b600080fd5b61013560048036038101906101309190612545565b6103bb565b60405161014291906131a7565b60405180910390f35b61015361049d565b6040516101609190613442565b60405180910390f35b6101716104ba565b60405161017e91906131c2565b60405180910390f35b6101a1600480360381019061019c9190612597565b61054c565b6040516101ae9190613117565b60405180910390f35b6101d160048036038101906101cc9190612509565b6105d1565b005b6101ed60048036038101906101e89190612403565b6106e9565b005b61020960048036038101906102049190612597565b610749565b60405161021691906131c2565b60405180910390f35b61023960048036038101906102349190612403565b610867565b005b61025560048036038101906102509190612597565b610887565b6040516102629190613117565b60405180910390f35b6102856004803603810190610280919061239e565b610939565b6040516102929190613442565b60405180910390f35b6102a36109f1565b6040516102b091906131c2565b60405180910390f35b6102d360048036038101906102ce91906124cd565b610a83565b005b6102ef60048036038101906102ea9190612597565b610c04565b6040516102fc91906131c2565b60405180910390f35b61031f600480360381019061031a9190612452565b610d22565b005b61033b60048036038101906103369190612597565b610d84565b60405161034891906131c2565b60405180910390f35b61036b60048036038101906103669190612597565b610ea2565b60405161037891906131c2565b60405180910390f35b610389610ff4565b005b6103a560048036038101906103a091906123c7565b61121e565b6040516103b291906131a7565b60405180910390f35b60007f80ac58cd000000000000000000000000000000000000000000000000000000007bffffffffffffffffffffffffffffffffffffffffffffffffffffffff1916827bffffffffffffffffffffffffffffffffffffffffffffffffffffffff1916148061048657507f5b5e139f000000000000000000000000000000000000000000000000000000007bffffffffffffffffffffffffffffffffffffffffffffffffffffffff1916827bffffffffffffffffffffffffffffffffffffffffffffffffffffffff1916145b8061049657506104958261134b565b5b9050919050565b600060016104ab60076113b5565b6104b591906135f7565b905090565b6060600080546104c9906136e1565b80601f01602080910402602001604051908101604052809291908181526020018280546104f5906136e1565b80156105425780601f1061051757610100808354040283529160200191610542565b820191906000526020600020905b81548152906001019060200180831161052557829003601f168201915b5050505050905090565b6000610557826113c3565b610596576040517f08c379a000000000000000000000000000000000000000000000000000000000815260040161058d906133a2565b60405180910390fd5b6004600083815260200190815260200160002060009054906101000a900473ffffffffffffffffffffffffffffffffffffffff169050919050565b60006105dc82610887565b90508073ffffffffffffffffffffffffffffffffffffffff168373ffffffffffffffffffffffffffffffffffffffff16141561064d576040517f08c379a000000000000000000000000000000000000000000000000000000000815260040161064490613402565b60405180910390fd5b8073ffffffffffffffffffffffffffffffffffffffff1661066c61142f565b73ffffffffffffffffffffffffffffffffffffffff16148061069b575061069a8161069561142f565b61121e565b5b6106da576040517f08c379a00000000000000000000000000000000000000000000000000000000081526004016106d1906132c2565b60405180910390fd5b6106e48383611437565b505050565b6106fa6106f461142f565b826114f0565b610739576040517f08c379a000000000000000000000000000000000000000000000000000000000815260040161073090613422565b60405180910390fd5b6107448383836115ce565b505050565b6060600061077d6107598461182a565b60405160200161076991906130d3565b6040516020818303038152906040526119d7565b905060098054905081610790919061375c565b9050600981815481106107cc577f4e487b7100000000000000000000000000000000000000000000000000000000600052603260045260246000fd5b9060005260206000200180546107e1906136e1565b80601f016020809104026020016040519081016040528092919081815260200182805461080d906136e1565b801561085a5780601f1061082f5761010080835404028352916020019161085a565b820191906000526020600020905b81548152906001019060200180831161083d57829003601f168201915b5050505050915050919050565b61088283838360405180602001604052806000815250610d22565b505050565b6000806002600084815260200190815260200160002060009054906101000a900473ffffffffffffffffffffffffffffffffffffffff169050600073ffffffffffffffffffffffffffffffffffffffff168173ffffffffffffffffffffffffffffffffffffffff161415610930576040517f08c379a000000000000000000000000000000000000000000000000000000000815260040161092790613302565b60405180910390fd5b80915050919050565b60008073ffffffffffffffffffffffffffffffffffffffff168273ffffffffffffffffffffffffffffffffffffffff1614156109aa576040517f08c379a00000000000000000000000000000000000000000000000000000000081526004016109a1906132e2565b60405180910390fd5b600360008373ffffffffffffffffffffffffffffffffffffffff1673ffffffffffffffffffffffffffffffffffffffff168152602001908152602001600020549050919050565b606060018054610a00906136e1565b80601f0160208091040260200160405190810160405280929190818152602001828054610a2c906136e1565b8015610a795780601f10610a4e57610100808354040283529160200191610a79565b820191906000526020600020905b815481529060010190602001808311610a5c57829003601f168201915b5050505050905090565b610a8b61142f565b73ffffffffffffffffffffffffffffffffffffffff168273ffffffffffffffffffffffffffffffffffffffff161415610af9576040517f08c379a0000000000000000000000000000000000000000000000000000000008152600401610af090613282565b60405180910390fd5b8060056000610b0661142f565b73ffffffffffffffffffffffffffffffffffffffff1673ffffffffffffffffffffffffffffffffffffffff16815260200190815260200160002060008473ffffffffffffffffffffffffffffffffffffffff1673ffffffffffffffffffffffffffffffffffffffff16815260200190815260200160002060006101000a81548160ff0219169083151502179055508173ffffffffffffffffffffffffffffffffffffffff16610bb361142f565b73ffffffffffffffffffffffffffffffffffffffff167f17307eab39ab6107e8899845ad3d59bd9653f200f220920489ca2b5937696c3183604051610bf891906131a7565b60405180910390a35050565b60606000610c38610c148461182a565b604051602001610c24919061306c565b6040516020818303038152906040526119d7565b9050600a8054905081610c4b919061375c565b9050600a8181548110610c87577f4e487b7100000000000000000000000000000000000000000000000000000000600052603260045260246000fd5b906000526020600020018054610c9c906136e1565b80601f0160208091040260200160405190810160405280929190818152602001828054610cc8906136e1565b8015610d155780601f10610cea57610100808354040283529160200191610d15565b820191906000526020600020905b815481529060010190602001808311610cf857829003601f168201915b5050505050915050919050565b610d33610d2d61142f565b836114f0565b610d72576040517f08c379a0000000000000000000000000000000000000000000000000000000008152600401610d6990613422565b60405180910390fd5b610d7e84848484611a0a565b50505050565b60606000610db8610d948461182a565b604051602001610da4919061304a565b6040516020818303038152906040526119d7565b9050600b8054905081610dcb919061375c565b9050600b8181548110610e07577f4e487b7100000000000000000000000000000000000000000000000000000000600052603260045260246000fd5b906000526020600020018054610e1c906136e1565b80601f0160208091040260200160405190810160405280929190818152602001828054610e48906136e1565b8015610e955780601f10610e6a57610100808354040283529160200191610e95565b820191906000526020600020905b815481529060010190602001808311610e7857829003601f168201915b5050505050915050919050565b6060610ead826113c3565b610eec576040517f08c379a0000000000000000000000000000000000000000000000000000000008152600401610ee390613382565b60405180910390fd5b6000600660008481526020019081526020016000208054610f0c906136e1565b80601f0160208091040260200160405190810160405280929190818152602001828054610f38906136e1565b8015610f855780601f10610f5a57610100808354040283529160200191610f85565b820191906000526020600020905b815481529060010190602001808311610f6857829003601f168201915b505050505090506000610f96611a66565b9050600081511415610fac578192505050610fef565b600082511115610fe1578082604051602001610fc9929190612fc6565b60405160208183030381529060405292505050610fef565b610fea84611a7d565b925050505b919050565b600061100060076113b5565b905060338110611045576040517f08c379a000000000000000000000000000000000000000000000000000000000815260040161103c90613342565b60405180910390fd5b600061105082610749565b9050600061105d83610c04565b9050600061106a84610d84565b9050600083838360405160200161108393929190612fea565b604051602081830303815290604052905060006008826040516020016110aa92919061301b565b604051602081830303815290604052905060006110ef836110ca84611b24565b6040516020016110db92919061308e565b604051602081830303815290604052611b24565b905060008160405160200161110491906130f5565b60405160208183030381529060405290506111536040518060400160405280601581526020017f0a2d2d2d2d2d2d2d2d2d2d2d2d2d2d2d2d2d2d2d2d00000000000000000000008152506112b2565b61115c816112b2565b61119a6040518060400160405280601581526020017f2d2d2d2d2d2d2d2d2d2d2d2d2d2d2d2d2d2d2d2d0a00000000000000000000008152506112b2565b6111a43389611ce2565b6111ae8882611d00565b6111b86007611d74565b6111db6040518060600160405280602581526020016138b7602591398933611d8a565b7febb98688741ffa4c7589bf325de30cf7becb63de567842e1ccdb6cb949fdc82c338960405161120c92919061317e565b60405180910390a15050505050505050565b6000600560008473ffffffffffffffffffffffffffffffffffffffff1673ffffffffffffffffffffffffffffffffffffffff16815260200190815260200160002060008373ffffffffffffffffffffffffffffffffffffffff1673ffffffffffffffffffffffffffffffffffffffff16815260200190815260200160002060009054906101000a900460ff16905092915050565b611348816040516024016112c691906131c2565b6040516020818303038152906040527f41304fac000000000000000000000000000000000000000000000000000000007bffffffffffffffffffffffffffffffffffffffffffffffffffffffff19166020820180517bffffffffffffffffffffffffffffffffffffffffffffffffffffffff8381831617835250505050611e29565b50565b60007f01ffc9a7000000000000000000000000000000000000000000000000000000007bffffffffffffffffffffffffffffffffffffffffffffffffffffffff1916827bffffffffffffffffffffffffffffffffffffffffffffffffffffffff1916149050919050565b600081600001549050919050565b60008073ffffffffffffffffffffffffffffffffffffffff166002600084815260200190815260200160002060009054906101000a900473ffffffffffffffffffffffffffffffffffffffff1673ffffffffffffffffffffffffffffffffffffffff1614159050919050565b600033905090565b816004600083815260200190815260200160002060006101000a81548173ffffffffffffffffffffffffffffffffffffffff021916908373ffffffffffffffffffffffffffffffffffffffff160217905550808273ffffffffffffffffffffffffffffffffffffffff166114aa83610887565b73ffffffffffffffffffffffffffffffffffffffff167f8c5be1e5ebec7d5bd14f71427d1e84f3dd0314c0f7b2291e5b200ac8c7c3b92560405160405180910390a45050565b60006114fb826113c3565b61153a576040517f08c379a0000000000000000000000000000000000000000000000000000000008152600401611531906132a2565b60405180910390fd5b600061154583610887565b90508073ffffffffffffffffffffffffffffffffffffffff168473ffffffffffffffffffffffffffffffffffffffff1614806115b457508373ffffffffffffffffffffffffffffffffffffffff1661159c8461054c565b73ffffffffffffffffffffffffffffffffffffffff16145b806115c557506115c4818561121e565b5b91505092915050565b8273ffffffffffffffffffffffffffffffffffffffff166115ee82610887565b73ffffffffffffffffffffffffffffffffffffffff1614611644576040517f08c379a000000000000000000000000000000000000000000000000000000000815260040161163b906133c2565b60405180910390fd5b600073ffffffffffffffffffffffffffffffffffffffff168273ffffffffffffffffffffffffffffffffffffffff1614156116b4576040517f08c379a00000000000000000000000000000000000000000000000000000000081526004016116ab90613262565b60405180910390fd5b6116bf838383611e52565b6116ca600082611437565b6001600360008573ffffffffffffffffffffffffffffffffffffffff1673ffffffffffffffffffffffffffffffffffffffff168152602001908152602001600020600082825461171a91906135f7565b925050819055506001600360008473ffffffffffffffffffffffffffffffffffffffff1673ffffffffffffffffffffffffffffffffffffffff16815260200190815260200160002060008282546117719190613516565b92505081905550816002600083815260200190815260200160002060006101000a81548173ffffffffffffffffffffffffffffffffffffffff021916908373ffffffffffffffffffffffffffffffffffffffff160217905550808273ffffffffffffffffffffffffffffffffffffffff168473ffffffffffffffffffffffffffffffffffffffff167fddf252ad1be2c89b69c2b068fc378daa952ba7f163c4a11628f55a4df523b3ef60405160405180910390a4505050565b60606000821415611872576040518060400160405280600181526020017f300000000000000000000000000000000000000000000000000000000000000081525090506119d2565b600082905060005b600082146118a457808061188d90613713565b915050600a8261189d919061356c565b915061187a565b60008167ffffffffffffffff8111156118e6577f4e487b7100000000000000000000000000000000000000000000000000000000600052604160045260246000fd5b6040519080825280601f01601f1916602001820160405280156119185781602001600182028036833780820191505090505b5090505b600085146119cb5760018261193191906135f7565b9150600a85611940919061375c565b603061194c9190613516565b60f81b818381518110611988577f4e487b7100000000000000000000000000000000000000000000000000000000600052603260045260246000fd5b60200101907effffffffffffffffffffffffffffffffffffffffffffffffffffffffffffff1916908160001a905350600a856119c4919061356c565b945061191c565b8093505050505b919050565b6000816040516020016119ea9190612faf565b6040516020818303038152906040528051906020012060001c9050919050565b611a158484846115ce565b611a2184848484611e57565b611a60576040517f08c379a0000000000000000000000000000000000000000000000000000000008152600401611a5790613222565b60405180910390fd5b50505050565b606060405180602001604052806000815250905090565b6060611a88826113c3565b611ac7576040517f08c379a0000000000000000000000000000000000000000000000000000000008152600401611abe906133e2565b60405180910390fd5b6000611ad1611a66565b90506000815111611af15760405180602001604052806000815250611b1c565b80611afb8461182a565b604051602001611b0c929190612fc6565b6040516020818303038152906040525b915050919050565b60606000825190506000811415611b4d5760405180602001604052806000815250915050611cdd565b60006003600283611b5e9190613516565b611b68919061356c565b6004611b74919061359d565b90506000602082611b859190613516565b67ffffffffffffffff811115611bc4577f4e487b7100000000000000000000000000000000000000000000000000000000600052604160045260246000fd5b6040519080825280601f01601f191660200182016040528015611bf65781602001600182028036833780820191505090505b50905060006040518060600160405280604081526020016138dc604091399050600181016020830160005b86811015611c9a5760038101905062ffffff818a015116603f8160121c168401518060081b905060ff603f83600c1c1686015116810190508060081b905060ff603f8360061c1686015116810190508060081b905060ff603f831686015116810190508060e01b90508084526004840193505050611c21565b506003860660018114611cb45760028114611cc457611ccf565b613d3d60f01b6002830352611ccf565b603d60f81b60018303525b508484525050819450505050505b919050565b611cfc828260405180602001604052806000815250611fee565b5050565b611d09826113c3565b611d48576040517f08c379a0000000000000000000000000000000000000000000000000000000008152600401611d3f90613322565b60405180910390fd5b80600660008481526020019081526020016000209080519060200190611d6f92919061222a565b505050565b6001816000016000828254019250508190555050565b611e24838383604051602401611da2939291906131e4565b6040516020818303038152906040527fe3849f79000000000000000000000000000000000000000000000000000000007bffffffffffffffffffffffffffffffffffffffffffffffffffffffff19166020820180517bffffffffffffffffffffffffffffffffffffffffffffffffffffffff8381831617835250505050611e29565b505050565b60008151905060006a636f6e736f6c652e6c6f679050602083016000808483855afa5050505050565b505050565b6000611e788473ffffffffffffffffffffffffffffffffffffffff16612049565b15611fe1578373ffffffffffffffffffffffffffffffffffffffff1663150b7a02611ea161142f565b8786866040518563ffffffff1660e01b8152600401611ec39493929190613132565b602060405180830381600087803b158015611edd57600080fd5b505af1925050508015611f0e57506040513d601f19601f82011682018060405250810190611f0b919061256e565b60015b611f91573d8060008114611f3e576040519150601f19603f3d011682016040523d82523d6000602084013e611f43565b606091505b50600081511415611f89576040517f08c379a0000000000000000000000000000000000000000000000000000000008152600401611f8090613222565b60405180910390fd5b805181602001fd5b63150b7a0260e01b7bffffffffffffffffffffffffffffffffffffffffffffffffffffffff1916817bffffffffffffffffffffffffffffffffffffffffffffffffffffffff191614915050611fe6565b600190505b949350505050565b611ff8838361205c565b6120056000848484611e57565b612044576040517f08c379a000000000000000000000000000000000000000000000000000000000815260040161203b90613222565b60405180910390fd5b505050565b600080823b905060008111915050919050565b600073ffffffffffffffffffffffffffffffffffffffff168273ffffffffffffffffffffffffffffffffffffffff1614156120cc576040517f08c379a00000000000000000000000000000000000000000000000000000000081526004016120c390613362565b60405180910390fd5b6120d5816113c3565b15612115576040517f08c379a000000000000000000000000000000000000000000000000000000000815260040161210c90613242565b60405180910390fd5b61212160008383611e52565b6001600360008473ffffffffffffffffffffffffffffffffffffffff1673ffffffffffffffffffffffffffffffffffffffff16815260200190815260200160002060008282546121719190613516565b92505081905550816002600083815260200190815260200160002060006101000a81548173ffffffffffffffffffffffffffffffffffffffff021916908373ffffffffffffffffffffffffffffffffffffffff160217905550808273ffffffffffffffffffffffffffffffffffffffff16600073ffffffffffffffffffffffffffffffffffffffff167fddf252ad1be2c89b69c2b068fc378daa952ba7f163c4a11628f55a4df523b3ef60405160405180910390a45050565b828054612236906136e1565b90600052602060002090601f016020900481019282612258576000855561229f565b82601f1061227157805160ff191683800117855561229f565b8280016001018555821561229f579182015b8281111561229e578251825591602001919060010190612283565b5b5090506122ac91906122b0565b5090565b5b808211156122c95760008160009055506001016122b1565b5090565b60006122e06122db8461348e565b61345d565b9050828152602081018484840111156122f857600080fd5b61230384828561369f565b509392505050565b60008135905061231a8161385a565b92915050565b60008135905061232f81613871565b92915050565b60008135905061234481613888565b92915050565b60008151905061235981613888565b92915050565b600082601f83011261237057600080fd5b81356123808482602086016122cd565b91505092915050565b6000813590506123988161389f565b92915050565b6000602082840312156123b057600080fd5b60006123be8482850161230b565b91505092915050565b600080604083850312156123da57600080fd5b60006123e88582860161230b565b92505060206123f98582860161230b565b9150509250929050565b60008060006060848603121561241857600080fd5b60006124268682870161230b565b93505060206124378682870161230b565b925050604061244886828701612389565b9150509250925092565b6000806000806080858703121561246857600080fd5b60006124768782880161230b565b94505060206124878782880161230b565b935050604061249887828801612389565b925050606085013567ffffffffffffffff8111156124b557600080fd5b6124c18782880161235f565b91505092959194509250565b600080604083850312156124e057600080fd5b60006124ee8582860161230b565b92505060206124ff85828601612320565b9150509250929050565b6000806040838503121561251c57600080fd5b600061252a8582860161230b565b925050602061253b85828601612389565b9150509250929050565b60006020828403121561255757600080fd5b600061256584828501612335565b91505092915050565b60006020828403121561258057600080fd5b600061258e8482850161234a565b91505092915050565b6000602082840312156125a957600080fd5b60006125b784828501612389565b91505092915050565b6125c98161362b565b82525050565b6125d88161363d565b82525050565b60006125e9826134d3565b6125f381856134e9565b93506126038185602086016136ae565b61260c81613849565b840191505092915050565b6000612622826134de565b61262c81856134fa565b935061263c8185602086016136ae565b61264581613849565b840191505092915050565b600061265b826134de565b612665818561350b565b93506126758185602086016136ae565b80840191505092915050565b6000815461268e816136e1565b612698818661350b565b945060018216600081146126b357600181146126c4576126f7565b60ff198316865281860193506126f7565b6126cd856134be565b60005b838110156126ef578154818901526001820191506020810190506126d0565b838801955050505b50505092915050565b600061270d60708361350b565b91507f222c20226465736372697074696f6e223a20224120686967686c79206163636c60008301527f61696d656420636f6c6c656374696f6e206f66204f6e6520506965636520636860208301527f61726163746572732e222c2022696d616765223a2022646174613a696d61676560408301527f2f7376672b786d6c3b6261736536342c000000000000000000000000000000006060830152607082019050919050565b60006127bf6032836134fa565b91507f4552433732313a207472616e7366657220746f206e6f6e20455243373231526560008301527f63656976657220696d706c656d656e74657200000000000000000000000000006020830152604082019050919050565b6000612825601c836134fa565b91507f4552433732313a20746f6b656e20616c7265616479206d696e746564000000006000830152602082019050919050565b6000612865600a8361350b565b91507f54484952445f574f5244000000000000000000000000000000000000000000006000830152600a82019050919050565b60006128a56024836134fa565b91507f4552433732313a207472616e7366657220746f20746865207a65726f2061646460008301527f72657373000000000000000000000000000000000000000000000000000000006020830152604082019050919050565b600061290b6019836134fa565b91507f4552433732313a20617070726f766520746f2063616c6c6572000000000000006000830152602082019050919050565b600061294b600b8361350b565b91507f5345434f4e445f574f52440000000000000000000000000000000000000000006000830152600b82019050919050565b600061298b602c836134fa565b91507f4552433732313a206f70657261746f7220717565727920666f72206e6f6e657860008301527f697374656e7420746f6b656e00000000000000000000000000000000000000006020830152604082019050919050565b60006129f1600d8361350b565b91507f3c2f746578743e3c2f7376673e000000000000000000000000000000000000006000830152600d82019050919050565b6000612a316038836134fa565b91507f4552433732313a20617070726f76652063616c6c6572206973206e6f74206f7760008301527f6e6572206e6f7220617070726f76656420666f7220616c6c00000000000000006020830152604082019050919050565b6000612a97602a836134fa565b91507f4552433732313a2062616c616e636520717565727920666f7220746865207a6560008301527f726f2061646472657373000000000000000000000000000000000000000000006020830152604082019050919050565b6000612afd6029836134fa565b91507f4552433732313a206f776e657220717565727920666f72206e6f6e657869737460008301527f656e7420746f6b656e00000000000000000000000000000000000000000000006020830152604082019050919050565b6000612b63602e836134fa565b91507f45524337323155524953746f726167653a2055524920736574206f66206e6f6e60008301527f6578697374656e7420746f6b656e0000000000000000000000000000000000006020830152604082019050919050565b6000612bc9601e836134fa565b91507f4f6e6c79203530204e46547320746f206265206d696e746564206d61782100006000830152602082019050919050565b6000612c0960028361350b565b91507f227d0000000000000000000000000000000000000000000000000000000000006000830152600282019050919050565b6000612c496020836134fa565b91507f4552433732313a206d696e7420746f20746865207a65726f20616464726573736000830152602082019050919050565b6000612c896031836134fa565b91507f45524337323155524953746f726167653a2055524920717565727920666f722060008301527f6e6f6e6578697374656e7420746f6b656e0000000000000000000000000000006020830152604082019050919050565b6000612cef602c836134fa565b91507f4552433732313a20617070726f76656420717565727920666f72206e6f6e657860008301527f697374656e7420746f6b656e00000000000000000000000000000000000000006020830152604082019050919050565b6000612d556029836134fa565b91507f4552433732313a207472616e73666572206f6620746f6b656e2074686174206960008301527f73206e6f74206f776e00000000000000000000000000000000000000000000006020830152604082019050919050565b6000612dbb602f836134fa565b91507f4552433732314d657461646174613a2055524920717565727920666f72206e6f60008301527f6e6578697374656e7420746f6b656e00000000000000000000000000000000006020830152604082019050919050565b6000612e21600a8361350b565b91507f7b226e616d65223a2022000000000000000000000000000000000000000000006000830152600a82019050919050565b6000612e616021836134fa565b91507f4552433732313a20617070726f76616c20746f2063757272656e74206f776e6560008301527f72000000000000000000000000000000000000000000000000000000000000006020830152604082019050919050565b6000612ec7600a8361350b565b91507f46495253545f574f5244000000000000000000000000000000000000000000006000830152600a82019050919050565b6000612f07601d8361350b565b91507f646174613a6170706c69636174696f6e2f6a736f6e3b6261736536342c0000006000830152601d82019050919050565b6000612f476031836134fa565b91507f4552433732313a207472616e736665722063616c6c6572206973206e6f74206f60008301527f776e6572206e6f7220617070726f7665640000000000000000000000000000006020830152604082019050919050565b612fa981613695565b82525050565b6000612fbb8284612650565b915081905092915050565b6000612fd28285612650565b9150612fde8284612650565b91508190509392505050565b6000612ff68286612650565b91506130028285612650565b915061300e8284612650565b9150819050949350505050565b60006130278285612681565b91506130338284612650565b915061303e826129e4565b91508190509392505050565b600061305582612858565b91506130618284612650565b915081905092915050565b60006130778261293e565b91506130838284612650565b915081905092915050565b600061309982612e14565b91506130a58285612650565b91506130b082612700565b91506130bc8284612650565b91506130c782612bfc565b91508190509392505050565b60006130de82612eba565b91506130ea8284612650565b915081905092915050565b600061310082612efa565b915061310c8284612650565b915081905092915050565b600060208201905061312c60008301846125c0565b92915050565b600060808201905061314760008301876125c0565b61315460208301866125c0565b6131616040830185612fa0565b818103606083015261317381846125de565b905095945050505050565b600060408201905061319360008301856125c0565b6131a06020830184612fa0565b9392505050565b60006020820190506131bc60008301846125cf565b92915050565b600060208201905081810360008301526131dc8184612617565b905092915050565b600060608201905081810360008301526131fe8186612617565b905061320d6020830185612fa0565b61321a60408301846125c0565b949350505050565b6000602082019050818103600083015261323b816127b2565b9050919050565b6000602082019050818103600083015261325b81612818565b9050919050565b6000602082019050818103600083015261327b81612898565b9050919050565b6000602082019050818103600083015261329b816128fe565b9050919050565b600060208201905081810360008301526132bb8161297e565b9050919050565b600060208201905081810360008301526132db81612a24565b9050919050565b600060208201905081810360008301526132fb81612a8a565b9050919050565b6000602082019050818103600083015261331b81612af0565b9050919050565b6000602082019050818103600083015261333b81612b56565b9050919050565b6000602082019050818103600083015261335b81612bbc565b9050919050565b6000602082019050818103600083015261337b81612c3c565b9050919050565b6000602082019050818103600083015261339b81612c7c565b9050919050565b600060208201905081810360008301526133bb81612ce2565b9050919050565b600060208201905081810360008301526133db81612d48565b9050919050565b600060208201905081810360008301526133fb81612dae565b9050919050565b6000602082019050818103600083015261341b81612e54565b9050919050565b6000602082019050818103600083015261343b81612f3a565b9050919050565b60006020820190506134576000830184612fa0565b92915050565b6000604051905081810181811067ffffffffffffffff821117156134845761348361381a565b5b8060405250919050565b600067ffffffffffffffff8211156134a9576134a861381a565b5b601f19601f8301169050602081019050919050565b60008190508160005260206000209050919050565b600081519050919050565b600081519050919050565b600082825260208201905092915050565b600082825260208201905092915050565b600081905092915050565b600061352182613695565b915061352c83613695565b9250827fffffffffffffffffffffffffffffffffffffffffffffffffffffffffffffffff038211156135615761356061378d565b5b828201905092915050565b600061357782613695565b915061358283613695565b925082613592576135916137bc565b5b828204905092915050565b60006135a882613695565b91506135b383613695565b9250817fffffffffffffffffffffffffffffffffffffffffffffffffffffffffffffffff04831182151516156135ec576135eb61378d565b5b828202905092915050565b600061360282613695565b915061360d83613695565b9250828210156136205761361f61378d565b5b828203905092915050565b600061363682613675565b9050919050565b60008115159050919050565b60007fffffffff0000000000000000000000000000000000000000000000000000000082169050919050565b600073ffffffffffffffffffffffffffffffffffffffff82169050919050565b6000819050919050565b82818337600083830152505050565b60005b838110156136cc5780820151818401526020810190506136b1565b838111156136db576000848401525b50505050565b600060028204905060018216806136f957607f821691505b6020821081141561370d5761370c6137eb565b5b50919050565b600061371e82613695565b91507fffffffffffffffffffffffffffffffffffffffffffffffffffffffffffffffff8214156137515761375061378d565b5b600182019050919050565b600061376782613695565b915061377283613695565b925082613782576137816137bc565b5b828206905092915050565b7f4e487b7100000000000000000000000000000000000000000000000000000000600052601160045260246000fd5b7f4e487b7100000000000000000000000000000000000000000000000000000000600052601260045260246000fd5b7f4e487b7100000000000000000000000000000000000000000000000000000000600052602260045260246000fd5b7f4e487b7100000000000000000000000000000000000000000000000000000000600052604160045260246000fd5b6000601f19601f8301169050919050565b6138638161362b565b811461386e57600080fd5b50565b61387a8161363d565b811461388557600080fd5b50565b61389181613649565b811461389c57600080fd5b50565b6138a881613695565b81146138b357600080fd5b5056fe416e204e465420772f20494420257320686173206265656e206d696e74656420746f2025734142434445464748494a4b4c4d4e4f505152535455565758595a6162636465666768696a6b6c6d6e6f707172737475767778797a303132333435363738392b2fa26469706673582212200bc8af2f5bdad473ef858fea3ed2efa954878de03410e0d5e90ed07eccaca22264736f6c634300080000333c73766720786d6c6e733d27687474703a2f2f7777772e77332e6f72672f323030302f73766727207072657365727665417370656374526174696f3d27784d696e594d696e206d656574272076696577426f783d273020302033353020333530273e3c7374796c653e2e62617365207b2066696c6c3a2077686974653b20666f6e742d66616d696c793a2073616e732d73657269663b20666f6e742d73697a653a20323070783b207d3c2f7374796c653e3c726563742077696474683d273130302527206865696768743d2731303025272066696c6c3d27626c61636b27202f3e3c7465787420783d273530252720793d273530252720636c6173733d27626173652720646f6d696e616e742d626173656c696e653d276d6964646c652720746578742d616e63686f723d276d6964646c65273e",
  "linkReferences": {},
  "deployedLinkReferences": {}
}